:020000040000FA
:060000000A128A110C280F
:10000800FE00030EF1000A08F2000A128A11D12834
:100018000A128A110F280A128A111B210A128A1140
:10002800F900F701F80183010A128A117728F5000F
:1000380051288F30831603138F05732883160313F3
:100048000F088F3910388F007328831603130F0891
:100058008F3920388F007328831603130F088F39C0
:1000680030388F007328831603130F088F394038F0
:100078008F007328831603130F088F3950388F00A9
:100088007328831603130F088F3960388F0073287D
:100098007030831603138F0473287508F300F40176
:1000A8007408003A0319592873287308013A031988
:1000B8001D28033A03192228013A03192928073A67
:1000C80003193028013A03193728033A03193E283F
:1000D800013A031945280F3A03194C287328831647
:1000E80003130F1408008316031788018901831668
:1000F8000313850107308600803087008801890155
:1001080083120313850186018701880189018316FB
:10011800031381131614961416150730950008302A
:100128000A128A111B200A128A110A128A1107213F
:100138000A128A118B178B150B100B1783160313D2
:100148008C16831203138C1230307906031DAD28E8
:10015800AE28B6288312031385013030F6007608DE
:10016800F800A8287703031DBA28BB28A828F70198
:1001780001308312031385000C1EC328C428CD2820
:10018800780899003030F6007608F8007808990069
:10019800A828A8280A128A110C280B1CD428D528AC
:1001A800F528831203130618DA28DB28E2283130F1
:1001B800F0007008F800F701F70AF4288618E52817
:1001C800E628EB283230F0007008F800DF2806191E
:1001D800EE28EF28F4283330F0007008F800DF2804
:1001E8000B10831203138C1EFA28FB2800291A0807
:1001F800F0007008F9008C1272088A00710E8300F2
:10020800FE0E7E0E09008316031318139816181293
:100218001815831203139817181318168316031743
:100228008715CF308316031399009A0108003034DC
:04400E00D420FF3F7C
:00000001FF
